{
  "contractName": "BookingColumns",
  "abi": [
    {
      "constant": true,
      "inputs": [
        {
          "internalType": "uint256",
          "name": "",
          "type": "uint256"
        }
      ],
      "name": "bookers",
      "outputs": [
        {
          "internalType": "address",
          "name": "",
          "type": "address"
        }
      ],
      "payable": false,
      "stateMutability": "view",
      "type": "function"
    },
    {
      "constant": false,
      "inputs": [
        {
          "internalType": "uint256",
          "name": "columnId",
          "type": "uint256"
        }
      ],
      "name": "booking",
      "outputs": [
        {
          "internalType": "uint256",
          "name": "",
          "type": "uint256"
        }
      ],
      "payable": false,
      "stateMutability": "nonpayable",
      "type": "function"
    },
    {
      "constant": true,
      "inputs": [],
      "name": "getBookers",
      "outputs": [
        {
          "internalType": "address[10]",
          "name": "",
          "type": "address[10]"
        }
      ],
      "payable": false,
      "stateMutability": "view",
      "type": "function"
    }
  ],
  "bytecode": "0x608060405234801561001057600080fd5b506102b9806100206000396000f3fe608060405234801561001057600080fd5b50600436106100415760003560e01c8063358dc19c1461004657806360538b3314610088578063f7b0f74b146100ce575b600080fd5b6100726004803603602081101561005c57600080fd5b810190808035906020019092919050505061013c565b6040518082815260200191505060405180910390f35b6100906101ad565b6040518082600a60200280838360005b838110156100bb5780820151818401526020810190506100a0565b5050505090500191505060405180910390f35b6100fa600480360360208110156100e457600080fd5b810190808035906020019092919050505061022e565b604051808273ffffffffffffffffffffffffffffffffffffffff1673ffffffffffffffffffffffffffffffffffffffff16815260200191505060405180910390f35b600080821015801561014f5750600a8211155b61015857600080fd5b33600083600a811061016657fe5b0160006101000a81548173ffffffffffffffffffffffffffffffffffffffff021916908373ffffffffffffffffffffffffffffffffffffffff160217905550819050919050565b6101b5610261565b6000600a806020026040519081016040528092919082600a8015610224576020028201915b8160009054906101000a900473ffffffffffffffffffffffffffffffffffffffff1673ffffffffffffffffffffffffffffffffffffffff16815260200190600101908083116101da575b5050505050905090565b600081600a811061023b57fe5b016000915054906101000a900473ffffffffffffffffffffffffffffffffffffffff1681565b604051806101400160405280600a9060208202803883398082019150509050509056fea265627a7a72315820f86e62f8405edaa98c59ecfb0116f159c106196b022b729105a911387ca43b0664736f6c63430005100032",
  "source": "pragma solidity ^0.5.0;\n\ncontract BookingColumns{\n    address[10] public bookers; //array of ethereum addresses\n\n    //We allow users to book a column\n    function booking(uint columnId) public returns (uint) {\n        require (columnId >=0 && columnId <=10);\n\n        bookers[columnId] = msg.sender; //the address of the person or SC who call this function is denoted by msg.sender\n\n        return columnId; //as confirmation\n    }\n\n    //Update all columns booking statuses\n    function getBookers() public view returns (address[10] memory) {\n        return bookers;\n    }\n\n}",
  "sourcePath": "/Users/flavia/BlockchainProve/charging-columns-tutorial/contracts/BookingColumns.sol",
  "compiler": {
    "name": "solc",
    "version": "0.5.16+commit.9c3226ce.Emscripten.clang"
  },
  "schemaVersion": "3.4.8",
  "updatedAt": "2022-08-01T09:04:36.749Z",
  "networkType": "ethereum",
  "devdoc": {
    "methods": {}
  },
  "userdoc": {
    "methods": {}
  }
}